{
  "address": "0x83EAfD543334fc6dce511709A2daf01014521C77",
  "abi": [
    {
      "inputs": [
        {
          "internalType": "address",
          "name": "_governor",
          "type": "address"
        },
        {
          "internalType": "address",
          "name": "_ZRX",
          "type": "address"
        }
      ],
      "stateMutability": "nonpayable",
      "type": "constructor"
    },
    {
      "inputs": [],
      "name": "ZeroAddress",
      "type": "error"
    },
    {
      "inputs": [],
      "name": "ZeroPairsToSwap",
      "type": "error"
    },
    {
      "anonymous": false,
      "inputs": [
        {
          "indexed": false,
          "internalType": "address",
          "name": "_to",
          "type": "address"
        },
        {
          "indexed": false,
          "internalType": "address",
          "name": "token",
          "type": "address"
        },
        {
          "indexed": false,
          "internalType": "uint256",
          "name": "amount",
          "type": "uint256"
        }
      ],
      "name": "DustSent",
      "type": "event"
    },
    {
      "anonymous": false,
      "inputs": [],
      "name": "PendingGovernorAccepted",
      "type": "event"
    },
    {
      "anonymous": false,
      "inputs": [
        {
          "indexed": false,
          "internalType": "address",
          "name": "_pendingGovernor",
          "type": "address"
        }
      ],
      "name": "PendingGovernorSet",
      "type": "event"
    },
    {
      "inputs": [
        {
          "internalType": "address",
          "name": "",
          "type": "address"
        },
        {
          "internalType": "contract IERC20Metadata",
          "name": "_tokenA",
          "type": "address"
        },
        {
          "internalType": "contract IERC20Metadata",
          "name": "_tokenB",
          "type": "address"
        },
        {
          "internalType": "uint256",
          "name": "",
          "type": "uint256"
        },
        {
          "internalType": "uint256",
          "name": "",
          "type": "uint256"
        },
        {
          "internalType": "bool",
          "name": "_isRewardTokenA",
          "type": "bool"
        },
        {
          "internalType": "uint256",
          "name": "_rewardAmount",
          "type": "uint256"
        },
        {
          "internalType": "uint256",
          "name": "_amountToProvide",
          "type": "uint256"
        },
        {
          "internalType": "bytes",
          "name": "_bytes",
          "type": "bytes"
        }
      ],
      "name": "DCAPairSwapCall",
      "outputs": [],
      "stateMutability": "nonpayable",
      "type": "function"
    },
    {
      "inputs": [],
      "name": "ETH",
      "outputs": [
        {
          "internalType": "address",
          "name": "",
          "type": "address"
        }
      ],
      "stateMutability": "view",
      "type": "function"
    },
    {
      "inputs": [],
      "name": "ZRX",
      "outputs": [
        {
          "internalType": "address",
          "name": "",
          "type": "address"
        }
      ],
      "stateMutability": "view",
      "type": "function"
    },
    {
      "inputs": [],
      "name": "acceptPendingGovernor",
      "outputs": [],
      "stateMutability": "nonpayable",
      "type": "function"
    },
    {
      "inputs": [],
      "name": "governor",
      "outputs": [
        {
          "internalType": "address",
          "name": "",
          "type": "address"
        }
      ],
      "stateMutability": "view",
      "type": "function"
    },
    {
      "inputs": [
        {
          "internalType": "address",
          "name": "_account",
          "type": "address"
        }
      ],
      "name": "isGovernor",
      "outputs": [
        {
          "internalType": "bool",
          "name": "_isGovernor",
          "type": "bool"
        }
      ],
      "stateMutability": "view",
      "type": "function"
    },
    {
      "inputs": [
        {
          "internalType": "address",
          "name": "_account",
          "type": "address"
        }
      ],
      "name": "isPendingGovernor",
      "outputs": [
        {
          "internalType": "bool",
          "name": "_isPendingGovernor",
          "type": "bool"
        }
      ],
      "stateMutability": "view",
      "type": "function"
    },
    {
      "inputs": [],
      "name": "pendingGovernor",
      "outputs": [
        {
          "internalType": "address",
          "name": "",
          "type": "address"
        }
      ],
      "stateMutability": "view",
      "type": "function"
    },
    {
      "inputs": [
        {
          "internalType": "address",
          "name": "_to",
          "type": "address"
        },
        {
          "internalType": "address",
          "name": "_token",
          "type": "address"
        },
        {
          "internalType": "uint256",
          "name": "_amount",
          "type": "uint256"
        }
      ],
      "name": "sendDust",
      "outputs": [],
      "stateMutability": "nonpayable",
      "type": "function"
    },
    {
      "inputs": [
        {
          "internalType": "address",
          "name": "__pendingGovernor",
          "type": "address"
        }
      ],
      "name": "setPendingGovernor",
      "outputs": [],
      "stateMutability": "nonpayable",
      "type": "function"
    },
    {
      "inputs": [
        {
          "components": [
            {
              "internalType": "contract IDCAPair",
              "name": "pair",
              "type": "address"
            },
            {
              "internalType": "bytes",
              "name": "data",
              "type": "bytes"
            }
          ],
          "internalType": "struct DCAZRXSwapper.PairToSwap[]",
          "name": "_pairsToSwap",
          "type": "tuple[]"
        }
      ],
      "name": "swapPairs",
      "outputs": [],
      "stateMutability": "nonpayable",
      "type": "function"
    }
  ],
  "transactionHash": "0x70cfebcfdc1695cb8d620a622ee230465b2402cc416a16fdc0c708d8258a9d7a",
  "args": [
    "0xeeAE844d04ee45c37636D8Db8C9482200177DC93",
    "0xdef1c0ded9bec7f1a1670819833240f027b25eff"
  ],
  "solcInputHash": "5b15d087978869c985a04122cdaf7472",
  "bytecode": "0x608060405234801561001057600080fd5b5060405161114f38038061114f83398101604081905261002f91610107565b816001600160a01b03811661008a5760405162461bcd60e51b815260206004820152601860248201527f476f7665726e61626c653a207a65726f20616464726573730000000000000000604482015260640160405180910390fd5b600080546001600160a01b0319166001600160a01b0392831617905581166100c55760405163d92e233d60e01b815260040160405180910390fd5b600480546001600160a01b0319166001600160a01b03929092169190911790555061013a565b80516001600160a01b038116811461010257600080fd5b919050565b6000806040838503121561011a57600080fd5b610123836100eb565b9150610131602084016100eb565b90509250929050565b611006806101496000396000f3fe608060405234801561001057600080fd5b50600436106100a95760003560e01c80638322fff2116100715780638322fff21461011b578063d40fa8bf14610136578063df08aed514610149578063e3056a341461017b578063e43581b81461018c578063f235757f146101ae57600080fd5b80630c340a24146100ae57806313f6986d146100d85780632db8c129146100e25780633d33803c146100f557806351b49e2214610108575b600080fd5b6000546001600160a01b03165b6040516001600160a01b0390911681526020015b60405180910390f35b6100e06101c1565b005b6100e06100f0366004610b97565b610234565b6100e0610103366004610bd8565b61029a565b6100e0610116366004610cbd565b6104a0565b6100bb73eeeeeeeeeeeeeeeeeeeeeeeeeeeeeeeeeeeeeeee81565b6004546100bb906001600160a01b031681565b61016b610157366004610b7a565b6001546001600160a01b0391821691161490565b60405190151581526020016100cf565b6001546001600160a01b03166100bb565b61016b61019a366004610b7a565b6000546001600160a01b0391821691161490565b6100e06101bc366004610b7a565b610510565b6001546001600160a01b0316331461022a5760405162461bcd60e51b815260206004820152602160248201527f476f7665726e61626c653a206f6e6c792070656e64696e6720676f7665726e6f6044820152603960f91b60648201526084015b60405180910390fd5b610232610572565b565b6000546001600160a01b0316331461028a5760405162461bcd60e51b815260206004820152601960248201527823b7bb32b93730b136329d1037b7363c9033b7bb32b93737b960391b6044820152606401610221565b61029583838361061a565b505050565b8215610494576000856102ad57886102af565b895b90506000866102be578a6102c0565b895b6004805460405163095ea7b360e01b81526001600160a01b0391821692810192909252602482018990529192509083169063095ea7b390604401602060405180830381600087803b15801561031457600080fd5b505af1158015610328573d6000803e3d6000fd5b505050506040513d601f19601f8201168201806040525081019061034c9190610d32565b506004546040516000916001600160a01b031690829061036f9088908890610d94565b60006040518083038185875af1925050503d80600081146103ac576040519150601f19603f3d011682016040523d82523d6000602084013e6103b1565b606091505b50509050806104025760405162461bcd60e51b815260206004820152601b60248201527f537761707065723a205a525820747261646520726576657274656400000000006044820152606401610221565b6040516370a0823160e01b81523060048201526104909033906001600160a01b038516906370a082319060240160206040518083038186803b15801561044757600080fd5b505afa15801561045b573d6000803e3d6000fd5b505050506040513d601f19601f8201168201806040525081019061047f9190610d4f565b6001600160a01b03851691906107a0565b5050505b50505050505050505050565b806104be57604051635088761560e01b815260040160405180910390fd5b60005b81811015610295576104fe8383838181106104de576104de610f81565b90506020028101906104f09190610e0a565b6104f990610e7a565b6107f2565b8061050881610f58565b9150506104c1565b6000546001600160a01b031633146105665760405162461bcd60e51b815260206004820152601960248201527823b7bb32b93730b136329d1037b7363c9033b7bb32b93737b960391b6044820152606401610221565b61056f81610861565b50565b6001546001600160a01b03166105ca5760405162461bcd60e51b815260206004820152601f60248201527f476f7665726e61626c653a206e6f2070656e64696e6720676f7665726e6f72006044820152606401610221565b60018054600080546001600160a01b03199081166001600160a01b0384161782559091169091556040517fdc57ca23c46d823853915ed5a090ca0ee9db5eb6a46f5c58e1c9158de861fd769190a1565b6001600160a01b0383166106705760405162461bcd60e51b815260206004820152601d60248201527f436f6c6c65637461626c65447573743a207a65726f20616464726573730000006044820152606401610221565b61067b60028361090b565b156106db5760405162461bcd60e51b815260206004820152602a60248201527f436f6c6c65637461626c65447573743a20746f6b656e2069732070617274206f60448201526919881c1c9bdd1bd8dbdb60b21b6064820152608401610221565b6001600160a01b03821673eeeeeeeeeeeeeeeeeeeeeeeeeeeeeeeeeeeeeeee141561073c576040516001600160a01b0384169082156108fc029083906000818181858888f19350505050158015610736573d6000803e3d6000fd5b50610750565b6107506001600160a01b03831684836107a0565b604080516001600160a01b038086168252841660208201529081018290527f1e34c1aee8e83c2dcc14c21bb4bfeea7f46c0c998cb797ac7cc4d7a18f5c656b9060600160405180910390a1505050565b604080516001600160a01b038416602482015260448082018490528251808303909101815260649091019091526020810180516001600160e01b031663a9059cbb60e01b179052610295908490610930565b8051602082015160405163022c0d9f60e01b81526001600160a01b039092169163022c0d9f9161082c916000918291309190600401610dc0565b600060405180830381600087803b15801561084657600080fd5b505af115801561085a573d6000803e3d6000fd5b5050505050565b6001600160a01b0381166108b75760405162461bcd60e51b815260206004820152601860248201527f476f7665726e61626c653a207a65726f206164647265737300000000000000006044820152606401610221565b600180546001600160a01b0319166001600160a01b0383169081179091556040519081527f56bddfa0cee9697cebddf9acd7f23dc6583663b05e007b877056d05017994def9060200160405180910390a150565b6001600160a01b038116600090815260018301602052604081205415155b9392505050565b6000610985826040518060400160405280602081526020017f5361666545524332303a206c6f772d6c6576656c2063616c6c206661696c6564815250856001600160a01b0316610a029092919063ffffffff16565b80519091501561029557808060200190518101906109a39190610d32565b6102955760405162461bcd60e51b815260206004820152602a60248201527f5361666545524332303a204552433230206f7065726174696f6e20646964206e6044820152691bdd081cdd58d8d9595960b21b6064820152608401610221565b6060610a118484600085610a19565b949350505050565b606082471015610a7a5760405162461bcd60e51b815260206004820152602660248201527f416464726573733a20696e73756666696369656e742062616c616e636520666f6044820152651c8818d85b1b60d21b6064820152608401610221565b843b610ac85760405162461bcd60e51b815260206004820152601d60248201527f416464726573733a2063616c6c20746f206e6f6e2d636f6e74726163740000006044820152606401610221565b600080866001600160a01b03168587604051610ae49190610da4565b60006040518083038185875af1925050503d8060008114610b21576040519150601f19603f3d011682016040523d82523d6000602084013e610b26565b606091505b5091509150610b36828286610b41565b979650505050505050565b60608315610b50575081610929565b825115610b605782518084602001fd5b8160405162461bcd60e51b81526004016102219190610df7565b600060208284031215610b8c57600080fd5b813561092981610fad565b600080600060608486031215610bac57600080fd5b8335610bb781610fad565b92506020840135610bc781610fad565b929592945050506040919091013590565b6000806000806000806000806000806101208b8d031215610bf857600080fd5b8a35610c0381610fad565b995060208b0135610c1381610fad565b985060408b0135610c2381610fad565b975060608b0135965060808b0135955060a08b0135610c4181610fc2565b945060c08b0135935060e08b013592506101008b013567ffffffffffffffff80821115610c6d57600080fd5b818d0191508d601f830112610c8157600080fd5b813581811115610c9057600080fd5b8e6020828501011115610ca257600080fd5b6020830194508093505050509295989b9194979a5092959850565b60008060208385031215610cd057600080fd5b823567ffffffffffffffff80821115610ce857600080fd5b818501915085601f830112610cfc57600080fd5b813581811115610d0b57600080fd5b8660208260051b8501011115610d2057600080fd5b60209290920196919550909350505050565b600060208284031215610d4457600080fd5b815161092981610fc2565b600060208284031215610d6157600080fd5b5051919050565b60008151808452610d80816020860160208601610f28565b601f01601f19169290920160200192915050565b8183823760009101908152919050565b60008251610db6818460208701610f28565b9190910192915050565b84815283602082015260018060a01b0383166040820152608060608201526000610ded6080830184610d68565b9695505050505050565b6020815260006109296020830184610d68565b60008235603e19833603018112610db657600080fd5b6040805190810167ffffffffffffffff81118282101715610e4357610e43610f97565b60405290565b604051601f8201601f1916810167ffffffffffffffff81118282101715610e7257610e72610f97565b604052919050565b600060408236031215610e8c57600080fd5b610e94610e20565b8235610e9f81610fad565b815260208381013567ffffffffffffffff80821115610ebd57600080fd5b9085019036601f830112610ed057600080fd5b813581811115610ee257610ee2610f97565b610ef4601f8201601f19168501610e49565b91508082523684828501011115610f0a57600080fd5b80848401858401376000908201840152918301919091525092915050565b60005b83811015610f43578181015183820152602001610f2b565b83811115610f52576000848401525b50505050565b6000600019821415610f7a57634e487b7160e01b600052601160045260246000fd5b5060010190565b634e487b7160e01b600052603260045260246000fd5b634e487b7160e01b600052604160045260246000fd5b6001600160a01b038116811461056f57600080fd5b801515811461056f57600080fdfea26469706673582212203b212e1a88f60b827f919ecc05b06cd1edf18e31b0638d251517e53caf164a7864736f6c63430008060033",
  "devdoc": {
    "kind": "dev",
    "methods": {},
    "version": 1
  },
  "userdoc": {
    "kind": "user",
    "methods": {},
    "version": 1
  },
  "storageLayout": {
    "storage": [
      {
        "astId": 15084,
        "contract": "contracts/DCASwapper/DCAZRXSwapper.sol:DCAZRXSwapper",
        "label": "_governor",
        "offset": 0,
        "slot": "0",
        "type": "t_address"
      },
      {
        "astId": 15086,
        "contract": "contracts/DCASwapper/DCAZRXSwapper.sol:DCAZRXSwapper",
        "label": "_pendingGovernor",
        "offset": 0,
        "slot": "1",
        "type": "t_address"
      },
      {
        "astId": 14940,
        "contract": "contracts/DCASwapper/DCAZRXSwapper.sol:DCAZRXSwapper",
        "label": "_protocolTokens",
        "offset": 0,
        "slot": "2",
        "type": "t_struct(AddressSet)3189_storage"
      },
      {
        "astId": 9548,
        "contract": "contracts/DCASwapper/DCAZRXSwapper.sol:DCAZRXSwapper",
        "label": "ZRX",
        "offset": 0,
        "slot": "4",
        "type": "t_address"
      }
    ],
    "types": {
      "t_address": {
        "encoding": "inplace",
        "label": "address",
        "numberOfBytes": "20"
      },
      "t_array(t_bytes32)dyn_storage": {
        "base": "t_bytes32",
        "encoding": "dynamic_array",
        "label": "bytes32[]",
        "numberOfBytes": "32"
      },
      "t_bytes32": {
        "encoding": "inplace",
        "label": "bytes32",
        "numberOfBytes": "32"
      },
      "t_mapping(t_bytes32,t_uint256)": {
        "encoding": "mapping",
        "key": "t_bytes32",
        "label": "mapping(bytes32 => uint256)",
        "numberOfBytes": "32",
        "value": "t_uint256"
      },
      "t_struct(AddressSet)3189_storage": {
        "encoding": "inplace",
        "label": "struct EnumerableSet.AddressSet",
        "members": [
          {
            "astId": 3188,
            "contract": "contracts/DCASwapper/DCAZRXSwapper.sol:DCAZRXSwapper",
            "label": "_inner",
            "offset": 0,
            "slot": "0",
            "type": "t_struct(Set)2918_storage"
          }
        ],
        "numberOfBytes": "64"
      },
      "t_struct(Set)2918_storage": {
        "encoding": "inplace",
        "label": "struct EnumerableSet.Set",
        "members": [
          {
            "astId": 2913,
            "contract": "contracts/DCASwapper/DCAZRXSwapper.sol:DCAZRXSwapper",
            "label": "_values",
            "offset": 0,
            "slot": "0",
            "type": "t_array(t_bytes32)dyn_storage"
          },
          {
            "astId": 2917,
            "contract": "contracts/DCASwapper/DCAZRXSwapper.sol:DCAZRXSwapper",
            "label": "_indexes",
            "offset": 0,
            "slot": "1",
            "type": "t_mapping(t_bytes32,t_uint256)"
          }
        ],
        "numberOfBytes": "64"
      },
      "t_uint256": {
        "encoding": "inplace",
        "label": "uint256",
        "numberOfBytes": "32"
      }
    }
  }
}